S0190000334C31465F434F4E54524F4C5F313238412E737265635A
S113000045C0000060C000005EC000005CC000008D
S11300105AC0000058C0000056C0000054C0000080
S113002052C0000050C000004EC000004CC0000090
S11300304AC0000048C0000046C0000044C00000A0
S113004042C0000010C100004DC100003CC00000CF
S11300503AC0000038C0000036C0000034C00000C0
S113006032C0000030C000002EC000002CC00000D0
S11300702AC0000028C0000026C0000024C00000E0
S113008022C0000020C000001EC0000011241FBEBA
S1130090CFEFD0E1DEBFCDBF11E0A0E0B1E0E0E8FA
S11300A0F6E000E00BBF02C007900D92A034B10748
S11300B0D9F721E0A0E4B1E001C01D92A934B20750
S11300C0E1F754D1DBC29CCF85B38B7F85BB82B370
S11300D08F7E82BB82B38F7D82BB82B38F7B82BBD8
S11300E082B38F7782BB85B38E7F85BBE2E6F0E077
S11300F080818E7F808380818D7F808380818B7FD0
S113010080838081877F8083089585B3846085BBE5
S113011082B3806182BB82B38F7D82BB82B38F7BCB
S113012082BB82B38F7782BB85B38E7F85BBE2E6C9
S1130130F0E080818E7F80838081826080838081F3
S11301408B7F80838081877F8083089585B38460DB
S113015085BB82B3806182BB82B3806282BB82B37F
S1130160806482BB82B38F7782BB85B38E7F85BB6D
S1130170E2E6F0E080818160808380818D7F8083EE
S11301808081846080838081877F8083089585B3A4
S1130190846085BB82B3806182BB82B3806282BB90
S11301A082B3806482BB82B3806882BB85B3816082
S11301B085BBE2E6F0E080818E7F808380818D7F45
S11301C0808380818B7F8083808188608083089591
S11301D01092710088E480937000089585B3826062
S11301E085BBE2E6F0E080818061808381E08093DA
S11301F04501089585B38D7F85BBE2E6F0E08081FB
S11302008F7E808310924501089585B3886085BBF5
S1130210E2E6F0E080818062808381E080934601A1
S1130220089585B3877F85BBE2E6F0E080818F7D0A
S1130230808310924601089585B3806185BBE2E610
S1130240F0E080818064808381E080934701089599
S113025085B38F7E85BBE2E6F0E080818F7B80836F
S11302601092470108951F920F920FB60F92112416
S11302700BB60F922F933F934F935F936F937F939C
S11302808F939F93AF93BF93EF93FF939FB180910D
S11302904301823088F4E82FF0E0E05CFE4F908365
S11302A08F5F80934301823039F41092420180E4DD
S11302B091E05ED0109243018EB180688EB9FF91B7
S11302C0EF91BF91AF919F918F917F916F915F91CA
S11302D04F913F912F910F900BBE0F900FBE0F9037
S11302E01F9018951F920F920FB60F9211240BB600
S11302F00F922F933F934F935F936F937F938F93BB
S11303009F93AF93BF93EF93FF938CB168D1FF9109
S1130310EF91BF91AF919F918F917F916F915F9179
S11303204F913F912F910F900BBE0F900FBE0F90E6
S11303301F90189587B3806187BB8DB180648DB998
S11303408DB180688DB9089543DFF4DF87E690E0CE
S113035029D1789481B3806F81BBE1E6F0E080819C
S11303608F67808384B38F6D84BB0895EDDFFFCFE7
S1130370CF93DF93EC0168E171E077D1892B19F415
S113038087E419D10CC16BE171E0CE016ED1892BE8
S113039009F595B382E0892785BBE2E6F0E0908118
S11303A080E1892780839091450181E0911180E06B
S11303B090914501891709F4F2C0E5E4F1E08083E6
S11303C08081813019F480E091E002C084E091E002
S11303D0F6D0E5C06EE171E0CE0147D1892B09F575
S11303E095B388E0892785BBE2E6F0E0908180E25E
S11303F0892780839091460181E0911180E090915A
S11304004601891709F4CBC0E5E4F1E081838181D9
S1130410813019F488E091E002C08CE091E0CFD003
S1130420BEC061E271E0CE0120D1892B09F595B3FC
S113043080E1892785BBE2E6F0E0908180E48927AA
S113044080839091470181E0911180E09091470170
S1130450891709F4A4C0E5E4F1E082838281813044
S113046019F480E191E002C084E191E0A8D097C042
S113047064E271E0CE01F9D0892B09F048C0809183
S11304804801823061F0833091F08130C1F43DDE67
S113049087E291E094D081E08093480180C056DEE9
S11304A08BE291E08CD082E08093480178C06FDECB
S11304B08FE291E084D083E08093480170C0809102
S11304C04401823061F0833091F08130C1F41DDE4B
S11304D087E291E074D081E08093480160C036DE09
S11304E08BE291E06CD082E08093480158C04FDEEB
S11304F08FE291E064D083E08093480150C047DEEE
S11305008FE291E05CD083E08093480148C063E3CC
S113051071E0CE01AAD0892B29F486E391E04FD073
S1130520D3DD3DC06AE371E0CE019FD0892BF1F4A5
S1130530949908C087E291E042D0E7DD81E080939E
S113054048012DC0969908C08BE291E038D0FEDDB9
S113055082E08093480123C0A89921C08FE291E0F2
S11305602ED015DE83E08093480119C06DE371E05D
S1130570CE017BD0892B99F4A89B08C08BE291E033
S11305801ED0E4DD82E08093480109C0969B07C039
S113059087E291E014D0B9DD81E080934801DF91D6
S11305A0CF9108959093900089B988E98AB98EE033
S11305B08093950008955D9BFECF8CB90895CF93E9
S11305C0DF93EC0102C02196F6DF88818111FBCF15
S11305D0DF91CF9108955F9BFECF8CB108958C3449
S11305E051F4F9DF813311F4F9CD0895803309F022
S11305F03BC000CE08958D3449F4EDDF813311F40E
S113060004CE0895803381F50CCE08958E3449F4D8
S1130610E2DF813311F410CE0895803329F518CE2A
S11306200895863409F5D7DF813339F46EDD81E02E
S113063080934801809344010895823339F486DD20
S113064082E080934801809344010895833339F410
S11306509EDD83E0809348018093440108958033B4
S113066019F432DD109248010895FB01DC018D91EB
S1130670019080190110D9F3990B0895F894FFCFD4
S11306804C310A004C300A004D310A004D300A004A
S11306904E310A004E300A004831004C31004C32D1
S11306A0004C330046300046310A0046320A004608
S11306B0330A0046310046300A0055310044310007
S9030000FC
